{
  "contractName": "Transct",
  "abi": [
    {
      "constant": true,
      "inputs": [],
      "name": "clientsCount",
      "outputs": [
        {
          "name": "",
          "type": "uint256"
        }
      ],
      "payable": false,
      "stateMutability": "view",
      "type": "function"
    },
    {
      "constant": true,
      "inputs": [
        {
          "name": "",
          "type": "address"
        }
      ],
      "name": "senders",
      "outputs": [
        {
          "name": "",
          "type": "bool"
        }
      ],
      "payable": false,
      "stateMutability": "view",
      "type": "function"
    },
    {
      "constant": true,
      "inputs": [
        {
          "name": "",
          "type": "uint256"
        }
      ],
      "name": "clients",
      "outputs": [
        {
          "name": "id",
          "type": "uint256"
        },
        {
          "name": "name",
          "type": "string"
        },
        {
          "name": "balance",
          "type": "uint256"
        }
      ],
      "payable": false,
      "stateMutability": "view",
      "type": "function"
    },
    {
      "inputs": [],
      "payable": false,
      "stateMutability": "nonpayable",
      "type": "constructor"
    },
    {
      "anonymous": false,
      "inputs": [
        {
          "indexed": true,
          "name": "_clientId",
          "type": "uint256"
        }
      ],
      "name": "transactEvent",
      "type": "event"
    },
    {
      "constant": false,
      "inputs": [
        {
          "name": "_clientId",
          "type": "uint256"
        },
        {
          "name": "amount",
          "type": "uint256"
        }
      ],
      "name": "sift",
      "outputs": [],
      "payable": false,
      "stateMutability": "nonpayable",
      "type": "function"
    }
  ],
  "bytecode": "0x608060405234801561001057600080fd5b5061005e6040805190810160405280600881526020017f436c69656e7420310000000000000000000000000000000000000000000000008152506100b0640100000000026401000000009004565b6100ab6040805190810160405280600881526020017f436c69656e7420320000000000000000000000000000000000000000000000008152506100b0640100000000026401000000009004565b6101d4565b6002600081548092919060010191905055506060604051908101604052806002548152602001828152602001620f424081525060016000600254815260200190815260200160002060008201518160000155602082015181600101908051906020019061011e92919061012f565b506040820151816002015590505050565b828054600181600116156101000203166002900490600052602060002090601f016020900481019282601f1061017057805160ff191683800117855561019e565b8280016001018555821561019e579182015b8281111561019d578251825591602001919060010190610182565b5b5090506101ab91906101af565b5090565b6101d191905b808211156101cd5760008160009055506001016101b5565b5090565b90565b6103c4806101e36000396000f300608060405260043610610062576000357c0100000000000000000000000000000000000000000000000000000000900463ffffffff168063156fe9461461006757806365ed48ea1461009e578063982fb9d8146100c9578063f88af21d14610124575b600080fd5b34801561007357600080fd5b5061009c60048036038101908080359060200190929190803590602001909291905050506101d8565b005b3480156100aa57600080fd5b506100b36102b0565b6040518082815260200191505060405180910390f35b3480156100d557600080fd5b5061010a600480360381019080803573ffffffffffffffffffffffffffffffffffffffff1690602001909291905050506102b6565b604051808215151515815260200191505060405180910390f35b34801561013057600080fd5b5061014f600480360381019080803590602001909291905050506102d6565b6040518084815260200180602001838152602001828103825284818151815260200191508051906020019080838360005b8381101561019b578082015181840152602081019050610180565b50505050905090810190601f1680156101c85780820380516001836020036101000a031916815260200191505b5094505050505060405180910390f35b6000821180156101ea57506002548211155b15156101f557600080fd5b60016000803373ffffffffffffffffffffffffffffffffffffffff1673ffffffffffffffffffffffffffffffffffffffff16815260200190815260200160002060006101000a81548160ff021916908315150217905550806001600084815260200190815260200160002060020154016001600084815260200190815260200160002060020181905550817f6ec527095393da14941a5366fb43a0246c6090d8504c0dacdd69176fcd1002a260405160405180910390a25050565b60025481565b60006020528060005260406000206000915054906101000a900460ff1681565b6001602052806000526040600020600091509050806000015490806001018054600181600116156101000203166002900480601f0160208091040260200160405190810160405280929190818152602001828054600181600116156101000203166002900480156103885780601f1061035d57610100808354040283529160200191610388565b820191906000526020600020905b81548152906001019060200180831161036b57829003601f168201915b50505050509080600201549050835600a165627a7a723058201524a5e8bb8e03e8138e0165bd7c7d857989a7e42583b710c213dffd3735277a0029",
  "source": "pragma solidity >=0.4.22;\r\n\r\ncontract Transct {\r\n    // Model a Client\r\n    struct Client {\r\n        uint256 id;\r\n        string name;\r\n        uint256 balance;\r\n    }\r\n\r\n    // Store accounts that have made a transaction\r\n    mapping(address => bool) public senders;\r\n    // Store Candidates*/\r\n\r\n    // Fetch Clients\r\n    mapping(uint256 => Client) public clients;\r\n    // Store Candidates Count\r\n    uint256 public clientsCount;\r\n\r\n    // transaction event\r\n    event transactEvent(uint256 indexed _clientId);\r\n\r\n    constructor() {\r\n        addClient(\"Client 1\");\r\n        addClient(\"Client 2\");\r\n    }\r\n\r\n    function addClient(string memory _name) private {\r\n        clientsCount++;\r\n        clients[clientsCount] = Client(clientsCount, _name, 1000000);\r\n    }\r\n\r\n    function sift(uint256 _clientId, uint256 amount) public {\r\n        // require a valid candidate\r\n        require(_clientId > 0 && _clientId <= clientsCount);\r\n\r\n        // record that voter has voted\r\n        senders[msg.sender] = true;\r\n\r\n        // update candidate vote Count\r\n        clients[_clientId].balance = clients[_clientId].balance + amount;\r\n\r\n        // trigger voted event\r\n        emit transactEvent(_clientId);\r\n    }\r\n}\r\n",
  "sourcePath": "C:/Users/acer/Desktop/Studies/PFA/Projet/contracts/Transct.sol",
  "compiler": {
    "name": "solc",
    "version": "0.4.24+commit.e67f0147.Emscripten.clang"
  },
  "schemaVersion": "3.4.1",
  "updatedAt": "2021-05-30T17:10:31.565Z",
  "networkType": "ethereum",
  "devdoc": {
    "methods": {}
  },
  "userdoc": {
    "methods": {}
  }
}